:1000000000308A0047280000FF00030E8301A10092
:100010000A08A0008A010408A2007708A300780853
:10002000A4007908A5007A08A600831383128B1E0A
:100030001B280B192C28220884002308F700240809
:10004000F8002508F9002608FA0020088A00210E89
:100050008300FF0E7F0E09008A110A122F28FF303D
:100060008100A70A27080139013C031D392806141D
:10007000861327080139031D3F2886170610270815
:100080000F3C0319A7010B118A110A121B28A701A3
:1000900083161F149F141F159F1183131F30830590
:1000A00009120030F800831292000030831692008B
:1000B0001F149F141F159F1183121F10F0309705F6
:1000C0009D0510308316850000308600831286015E
:1000D00083160108C73928388100FF308312810058
:0A00E0008B16C0308B0473286300F8
:02400E00733FFE
:00000001FF
;PIC16F877
;CRC=8309  CREATED="23-Ara-21 22:51"
